:0400000080311A2809
:100008007E14803120007F08F6000B1D16283D3035
:1000180095008231AA2280312000911E1528FA010C
:10002800FA0A0B117608FF007E10090080311C289F
:1000380096308400233085005A30FE000030FF00DF
:10004800863191268031F701F801F901FA01FB01A7
:1000580020308400003085002730FE000030FF008B
:10006800863191268031A0308400003085004630EA
:10007800FE000030FF008631912680312030840058
:10008800013085005030FE000030FF008631912697
:100098008031A0308400013085003030FE0000300F
:1000A800FF00863191267E1020008531A92D02306F
:1000B8002000D7005708E3005130D7005708210027
:1000C800A0008F302000D70057082100A1003F3042
:1000D8002000D70057082100A20008302000D700D0
:1000E80057082100A30040302000D70057082100FE
:1000F800A400A501A60118302000D7005708210048
:10010800A70048302000D70057082100A800A901FF
:10011800AA0108302000D70057082100AB00403062
:100128002000D70057082100AC00AD01AE012830EF
:100138002000D70057082100AF0044302000D70026
:1001480057082100B000B101B20108302000D700E3
:1001580057082100B30040302000D700570821007D
:10016800B400B501B60148302000D7005708210077
:10017800B70042302000D70057082100B800B90165
:10018800BA0108302000D70057082100BB007F3093
:100198002000D70057082100BC00FF302000D700FE
:1001A80057082100BD003F302000D7005708210024
:1001B800BE00FF302000D70057082100BF007F3065
:1001C8002000D70057082100C000FF302000D700CA
:1001D80057082100C1003F302000D70057082100F0
:1001E800C200FF302000D70057082100C30040306C
:1001F8002000D70057082100C400C501C6010830F7
:100208002000D70057082100C70040302000D70041
:1002180057082100C800C901CA0108302000D700CA
:1002280057082100CB0040302000D7005708210094
:10023800CC00CD01CE0108302000D700570821009E
:10024800CF0040302000D70057082100D000D1014E
:10025800D20108302000D70057082100D3004030D1
:100268002000D70057082100D400D501D601083056
:100278002000D70057082100D70040302000D700C1
:1002880057082100D800D901DA0108302000D7002A
:1002980057082100DB0041302000D7005708210013
:1002A800DC008F302000D70057082100DD003F30E8
:1002B8002000D70057082100DE0008302000D700B2
:1002C80057082100DF0020006308023A031D0800D8
:1002D800C201C20A113042020318AB29C30102301D
:1002E80043020318A3294208D7000130D735FF3E3F
:1002F800031D7A2957354307FE3ED8005808C50024
:100308004508A03E860087010108D7004208D800AA
:100318000130D835890B8D2920305807D90043087A
:100328005907DA005A08860087015708810001300A
:10033800D7005708C30702304302031C772901304E
:10034800D7005708C20711304202031C7229C201A4
:10035800C20A1130420203183F2A0314420D203EFC
:100368008600870101081F390907D7004208D8000D
:10037800D9015808D1005908D2000530D3000030FF
:10038800D40086311F26803196302000DA002330D1
:10039800DB0051085A07DC0052085B3DDD005C08B1
:1003A80086005D088700570881004235203E860098
:1003B80087010108D7004208D800D9015808D100A0
:1003C8005908D2000530D3000030D40086311F26EA
:1003D800803120005108013EDA000030523DDB0038
:1003E8009630DC002330DD005A085C07DE005B082D
:1003F8005D3DDF005E0886005F08870057088100C2
:100408000314420D203E860087010108D7000530FD
:10041800D736890B0C2A57080739D8004208D90063
:10042800DA015908D1005A08D2000530D30000304B
:10043800D40086311F26803120005108043EDB009D
:100448000030523DDC009630DD002330DE005B08D2
:100458005D07DF005C085E3DE0005F08860060081D
:100468008700580881000130D7005708C2071130AB
:100478004202031CB12996308600233087004A3196
:1004880001088038D700A03086002330870057083D
:1004980081009630860023308700543101084038A7
:1004A800D700AA3086002330870057088100B6306D
:1004B80086002330870001080138D700B63086004F
:1004C8002330870057088100C0308600233087001A
:1004D80001080238D700C03086002330870057084B
:1004E8008100CA3086002330870001080438D7000D
:1004F800CA3086002330870057088100D430860030
:100508002330870001080838D700D430860023300C
:10051800870057088100DF308600233087000108F4
:100528000138D700DF308600233087005708810064
:10053800E93086002330870001080238D700E93007
:100548008600233087005708810008000230200009
:10055800C7004708E3005130C70047082100A00042
:100568008F302000C70047082100A1003F3020003D
:10057800C70047082100A20008302000C70047082C
:100588002100A30040302000C70047082100A40034
:10059800A501A60118302000C70047082100A700C0
:1005A80048302000C70047082100A800A901AA0177
:1005B80008302000C70047082100AB004030200069
:1005C800C70047082100AC00AD01AE01283020006B
:1005D800C70047082100AF0044302000C700470883
:1005E8002100B000B101B20108302000C70047085F
:1005F8002100B30040302000C70047082100B400A4
:10060800B501B60148302000C70047082100B700EF
:1006180042302000C70047082100B800B901BA01DC
:1006280008302000C70047082100BB007F302000A9
:10063800C70047082100BC00FF302000C70047085A
:100648002100BD003F302000C70047082100BE0040
:10065800FF302000C70047082100BF007F3020007E
:10066800C70047082100C000FF302000C700470826
:100678002100C1003F302000C70047082100C20008
:10068800FF302000C70047082100C3004030200089
:10069800C70047082100C400C501C6010830200072
:1006A800C70047082100C70040302000C70047089E
:1006B8002100C800C901CA0108302000C700470846
:1006C8002100CB0040302000C70047082100CC00A3
:1006D800CD01CE0108302000C70047082100CF0017
:1006E80040302000C70047082100D000D101D201C6
:1006F80008302000C70047082100D3004030200000
:10070800C70047082100D400D501D60108302000D1
:10071800C70047082100D70040302000C70047081D
:100728002100D800D901DA0108302000C7004708A5
:100738002100DB0041302000C70047082100DC0011
:100748008F302000C70047082100DD003F3020001F
:10075800C70047082100DE0008302000C70047080E
:100768002100DF0020006308023A031D0800C201CF
:10077800C20A113042020318FA2BC30102304302A5
:100788000318F22B4208C7000130C735FF3E031D8E
:10079800C92B47354307FE3EC8004808C500450831
:1007A800A03E860087010108C7004208C800013042
:1007B800C835890BDC2B20304807C9004308490796
:1007C800CA004A0886008701470881000130C7002F
:1007D8004708C30702304302031CC62B0130C70079
:1007E8004708C20711304202031CC12BC201C20ACA
:1007F8001130420203188E2C0314420D203E86004D
:10080800870101081F390907C7004208C800C90144
:100818004808F0004908F1000530F2000030F30004
:1008280086313D26823196302000CA002330CB0025
:1008380070084A07CC0071084B3DCD004C08860073
:100848004D088700470881004235203E8600870111
:100858000108C7004208C800C9014808F000490853
:10086800F1000530F2000030F30086313D26823178
:100878007008013E2000CA000030713DCB00963060
:10088800CC002330CD004A084C07CE004B084D3D24
:10089800CF004E0886004F088700470881000314E0
:1008A800420D203E860087010108C7000530C73683
:1008B800890B5B2C47080739C8004208C900CA01E0
:1008C8004908F0004A08F1000530F2000030F30052
:1008D80086313D2682317008043E2000CB0000306E
:1008E800713DCC009630CD002330CE004B084D072B
:1008F800CF004C084E3DD0004F08860050088700B6
:10090800480881000130C7004708C2071130420279
:10091800031C002C96308600233087004A310108DA
:100928008038C700A0308600233087004708810040
:100938009630860023308700543101084038C700BC
:10094800AA3086002330870047088100B630860029
:100958002330870001080138C700B63086002330ED
:10096800870047088100C0308600233087000108CF
:100978000238C700C030860023308700470881004E
:10098800CA3086002330870001080438C700CA30FF
:1009980086002330870047088100D4308600233042
:1009A800870001080838C700D43086002330870044
:1009B80047088100DF3086002330870001080138AE
:1009C800C700DF3086002330870047088100E93000
:1009D80086002330870001080238C700E930860006
:1009E8002330870047088100080001302000D70025
:1009F8005708C4078F1E042D1030D7005708C400AD
:100A08004408D700D8015708D1005808D20005304B
:100A1800D3000030D40086311F2684319630200060
:100A2800D9002330DA0051085907860052085A3D88
:100A3800870001088C004408D700D8015708D10066
:100A48005808D2000530D3000030D40086311F2664
:100A5800843120005108013ED9000030523DDA00AF
:100A68009630DB002330DC0059085B0786005A0803
:100A78005C3D870001088D004408D700D80157085D
:100A8800D1005808D2000530D3000030D400863198
:100A98001F26843120005108023ED9000030523D03
:100AA800DA009630DB002330DC0059085B0786004B
:100AB8005A085C3D870001088E004408D700D80119
:100AC8005708D1005808D2000530D3000030D400B0
:100AD80086311F26843120005108033ED90000309A
:100AE800523DDA009630DB002330DC0059085B0702
:100AF80086005A085C3D870001088F004408D7002B
:100B0800D8015708D1005808D2000530D30000306A
:100B1800D40086311F26843120005108043ED900B4
:100B28000030523DDA009630DB002330DC005908F3
:100B38005B0786005A085C3D87000108900044085E
:100B4800103A031D0800C4010800FF302000E1002E
:100B58006108E20086315A26853121008E170E136E
:100B6800333023009B0090309D0024309E009F016D
:100B780000308631822685312000E1006108E200DC
:100B88000230210095003D30200095000B11C60170
:100B98008B16C03024008D00210095138B138031F3
:100BA8005B20853120000F1ED62D8431F924853134
:100BB80020000F1ADC2D8431F9248531D62D0F1E23
:100BC800E32D8F1EFD2D0830E1006108C200FD2DC8
:100BD8008C170A2E0C170A2E0E140A2E8E140A2EA3
:100BE8000E150A2E8E150A2E0F140A2E8F14C20106
:100BF8000A2E4208FF3E031C0A2E84000830040215
:100C080003180A2E86310435723E82000F1A0A2E06
:100C18008C130C130E108E100E118E110F108F10D6
:100C2800F0308E003F308C00FC308F000130E10046
:100C38006108C207E32D2000D501D601511C282EDA
:100C48005308D5075408D63D0130D335D40D890B48
:100C5800292E0130D236D10C890B2E2E5208510480
:100C6800031D222E5608D201D2075508D101D107FB
:100C78000800F401F501701C452E7208F40773088A
:100C8800F53D0130F235F30D890B462E0130F13672
:100C9800F00C890B4B2E71087004031D3F2E75084C
:100CA800F101F1077408F001F00708007030210025
:100CB800990023008C018D018F01900121008C0186
:100CC8008D01B0308E003C308F00900120008C01E7
:100CD8008D0180308E008F01900108008531EC2D48
:100CE8008531EE2D8531F02D8531F22D8531F42DAC
:100CF8008531F62D8531F82D8531FA2D2000D30068
:100D08005308D100D2015108230091002000520855
:100D180023009200151413080800640080010131B3
:100D28000130FE020030FF3B7F087E0403190034C7
:020D3800922EF9
:020000040001F9
:04000E0084FFFFFF6D
:00000001FF
