:0400000080311D2806
:100008007E14803120007F08F5000B1D18283D3034
:1000180095000130F4007408F7078231CA22803154
:1000280009308231E9220B1175082000FF007E108B
:10003800090080311F28F701203084000030850036
:1000480030308231F0228031A030840000308500C9
:1000580030308231F0227E10200080313328200099
:10006800DF01DF0A82319122803121008E170E13C1
:10007800333023009B0090309D0024309E009F0168
:100088000630210095003D30200095000B11F70146
:100098008B16C03024008D00210095138B1320008F
:1000A8008C140C158C150C168C160D148D140D153E
:1000B8008D150D168D160D178D171014901410151B
:1000C800FF308C00FF308D00FF308E00FF308F0036
:1000D800FF3090008C130C130E108E100E118E1121
:1000E8000F108F10DF01DF0A3C3021008F00200045
:1000F8000F1793288C178D280C178D280E148D2810
:100108008E148D280E158D288E158D280F148D2888
:100118008F145F08093A031DA128DF01DF0A5F0871
:10012800FF3E031C8D2884000830040203188D2824
:1001380082310435BA3E82008D280E1AA1288C130C
:100148000C130E108E100E118E110F108F1001301F
:10015800DA005A08DF070E1A9328AF28823178226E
:1001680080312000DF0110305F0203182A29DE01E8
:1001780003305E02031822298231E22280312000F6
:10018800DA005A08DD005D080D3A031D06290D3016
:10019800DA000330DB005B08F6005F088231A82232
:1001A8008031A03E20005E07DC005C0886008701E5
:1001B8005A0881005E30DA005A08D0005F30823178
:1001C8004A228031200051085004031D1929823128
:1001D800E22280312000DA005A08DD005D080A3A80
:1001E800031D19298231E2228031DD3A03191929C8
:1001F80010302000DA005A08DF000330DA005A080D
:10020800DE0019295D08DA000330DB005B08F60020
:100218005F088231A8228031A03E20005E07DC0002
:100228005C08860087015A08810001302000DA0046
:100238005A08DE0703305E02031CC0280130DA00CA
:100248005A08DF0710305F02031CBB2811305F0219
:100258000318B2288231E22280310D3A031DB228F8
:100268008231E22280310A3A031DB2288231E22229
:100278008031DD3A0319B228813144218031B22816
:100288002000D8011030580203180800D9010330A3
:100298005902031879290330D3005308F600580887
:1002A8008231A8228131A03E20005907D400540889
:1002B800860087010108D5000330D6005608F600ED
:1002C80058088231A8228131203E20005907D700E2
:1002D800570886008701550881000130D30053086C
:1002E800D90703305902031C4F290130D3005308A2
:1002F800D8074629770820004402031C0C11770808
:100308004502031C0C1077084602031C8C11770861
:100318004702031C8C1077084802031C8C127708CC
:100328004902031C0C1277084A02031C0E117708B5
:100338004B02031C8C1377084C02031C0C13770820
:100348004D02031C8E1077084E02031C8E1177088D
:100358004F02031808000E10080077082000380222
:10036800031C0C1177083902031C0C1077083A0299
:10037800031C8C1177083B02031C8C1077083C0285
:10038800031C8C1277083D02031C0C1277083E02EE
:10039800031C0E1177083F02031C8C1377084002D8
:1003A800031C0C1377084102031C8E1077084202C5
:1003B800031C8E1177084302031808000E1008006A
:1003C800770820002C02031C0C1177082D02031C4F
:1003D8000C1077082E02031C8C1177082F02031CBF
:1003E8008C1077083002031C8C1277083102031C2A
:1003F8000C1277083202031C0E1177083302031C13
:100408008C1377083402031C0C1377083502031C7D
:100418008E1077083602031C8E11770837020318EE
:1004280008000E100800770820002002031C0C1199
:1004380077082102031C0C1077082202031C8C1178
:1004480077082302031C8C1077082402031C8C12E3
:1004580077082502031C0C1277082602031C0E11CC
:1004680077082702031C8C1377082802031C0C1337
:1004780077082902031C8E1077082A02031C8E11A4
:1004880077082B02031808000E1008002000D2007D
:10049800500886008701023001020318582A0130EB
:1004A800F6007608D007752A5208860087010F30B3
:1004B80001020318682A500886008701810101306B
:1004C800F6007608D207752A0130F6007608D007BC
:1004D8000130F6007608D2070130D0000030D10094
:1004E8000800D001D1010800F601F60A8231E222A3
:1004F8008231FF3A03197A2A8231E2228231533A51
:10050800031D8D2A8231E2228231543A031D8D2A3D
:10051800F601F608031908007A2A703021009900BC
:1005280023008C018D018F01900121008C018D0128
:10053800B0308E003C308F00900120008C018D017E
:1005480080308E008F0108002000D200D101521C9B
:10055800B12A7608D0005008D1070310F60D031011
:10056800D20CD208031DAB2A5108080080317E281E
:100578008031802880318228803184288031862803
:100588008031882880318A2880318C28F708031D1B
:10059800D02A8231DA2208007708F200F3017208C3
:1005A800F0007308F100823117220800FF302000A4
:1005B8008C000E158E148E150E1408002000911E46
:1005C800E22A9112230019080800F00023009E1C5B
:1005D800EA2A70089A000800640080010131890B3A
:0405E800F12A0034C0
:020000040001F9
:04000E0084FFFFFF6D
:00000001FF
