:0400000080311D2806
:100008007E14803120007F08F5000B1D18283D3034
:1000180095000130F4007408F7078231CE22803150
:1000280009308231ED220B1175082000FF007E1087
:10003800090080311F28F701203084000030850036
:1000480030308231F4228031A030840000308500C5
:1000580030308231F4227E10200080313328200095
:10006800DF01DF0A82319422803121008E170E13BE
:10007800333023009B0090309D0024309E009F0168
:100088000630210095003D30200095000B11F70146
:100098008B16C03024008D00210095138B1320008F
:1000A8008C140C158C150C168C160D148D140D153E
:1000B8008D150D168D160D178D171014901410151B
:1000C800FF308C00FF308D00FF308E00FF308F0036
:1000D800FF3090008C130C130E108E100E118E1121
:1000E8000F108F10DF01DF0A0F170F1E79288F1EE0
:1000F80093280830DA005A08DF0093288C17A028C4
:100108000C17A0280E14A0288E14A0280E15A028BD
:100118008E15A0280F14A0288F14DF01A0285F08CF
:10012800FF3E031CA0288400083004020318A028FE
:1001380082310435BE3E82000F1AA0288C130C139E
:100148000E108E100E118E110F108F10F0308E00C1
:100158003F308C00FC308F000130DA005A08DF078E
:10016800792882317B2280312000DF0110305F0244
:1001780003182D29DE0103305E0203182529823178
:10018800E62280312000DA005A08DD005D080D3AC9
:10019800031D09290D30DA000330DB005B08F60087
:1001A8005F088231AC228031A03E20005E07DC006F
:1001B8005C08860087015A0881005E30DA005A0818
:1001C800D0005F3082314D22803120005108500428
:1001D800031D1C298231E62280312000DA005A08EA
:1001E800DD005D080A3A031D1C298231E6228031B0
:1001F800DD3A03191C2910302000DA005A08DF0004
:100208000330DA005A08DE001C295D08DA000330E2
:10021800DB005B08F6005F088231AC228031A03E2B
:1002280020005E07DC005C08860087015A08810010
:1002380001302000DA005A08DE0703305E02031C92
:10024800C3280130DA005A08DF0710305F02031CA8
:10025800BE2811305F020318B5288231E6228031AA
:100268000D3A031DB5288231E62280310A3A031D72
:10027800B5288231E6228031DD3A0319B52881316B
:1002880047218031B5282000D801103058020318C2
:100298000800D9010330590203187C290330D30020
:1002A8005308F60058088231AC228131A03E200064
:1002B8005907D4005408860087010108D500033087
:1002C800D6005608F60058088231AC228131203E0B
:1002D80020005907D7005708860087015508810074
:1002E8000130D3005308D90703305902031C52299F
:1002F8000130D3005308D807492977082000440261
:10030800031C0C1177084502031C0C1077084602E1
:10031800031C8C1177084702031C8C1077084802CD
:10032800031C8C1277084902031C0C1277084A0236
:10033800031C0E1177084B02031C8C1377084C0220
:10034800031C0C1377084D02031C8E1077084E020D
:10035800031C8E1177084F02031808000E100800BE
:10036800770820003802031C0C1177083902031C97
:100378000C1077083A02031C8C1177083B02031C07
:100388008C1077083C02031C8C1277083D02031C72
:100398000C1277083E02031C0E1177083F02031C5B
:1003A8008C1377084002031C0C1377084102031CC6
:1003B8008E1077084202031C8E1177084302031837
:1003C80008000E100800770820002C02031C0C11EE
:1003D80077082D02031C0C1077082E02031C8C11C1
:1003E80077082F02031C8C1077083002031C8C122C
:1003F80077083102031C0C1277083202031C0E1115
:1004080077083302031C8C1377083402031C0C137F
:1004180077083502031C8E1077083602031C8E11EC
:1004280077083702031808000E1008007708200024
:100438002002031C0C1177082102031C0C107708FA
:100448002202031C8C1177082302031C8C107708E6
:100458002402031C8C1277082502031C0C1277084F
:100468002602031C0E1177082702031C8C13770839
:100478002802031C0C1377082902031C8E10770826
:100488002A02031C8E1177082B02031808000E108D
:1004980008002000D20050088600870102300102BF
:1004A80003185B2A0130F6007608D007782A52082C
:1004B800860087010F30010203186B2A5008860056
:1004C800870181010130F6007608D207782A0130C9
:1004D800F6007608D0070130F6007608D20701301A
:1004E800D0000030D1000800D001D1010800F60189
:1004F800F60A8231E6228231FF3A03197D2A8231D7
:10050800E6228231533A031D902A8231E622823153
:10051800543A031D902AF601F608031908007D2AAB
:1005280070302100990023008C018D018F0190010A
:1005380021008C018D01B0308E003C308F0090017D
:1005480020008C018D0180308E008F019001080001
:100558002000D200D101521CB52A7608D0005008DC
:10056800D1070310F60D0310D20CD208031DAF2AD1
:1005780051080800803182288031842880318628FB
:100588008031882880318A2880318C2880318E28D3
:1005980080319028F708031DD42A8231DE22080012
:1005A8007708F200F3017208F0007308F100823155
:1005B8001A220800FF3020008C000E158E148E15AC
:1005C8000E1408002000911EE62A91122300190833
:1005D8000800F00023009E1CEE2A70089A0008000C
:0C05E800640080010131890BF52A003409
:020000040001F9
:04000E0084FFFFFF6D
:00000001FF
