:0400000080311D2806
:100008007E14803120007F08F5000B1D18283D3034
:1000180095000130F4007408F7078231C822803156
:1000280009308231E7220B1175082000FF007E108D
:10003800090080311F28F701203084000030850036
:1000480030308231EE228031A030840000308500CB
:1000580030308231EE227E1020008031332820009B
:10006800DF01DF0A82318E22803121008E170E13C4
:10007800333023009B0090309D0024309E009F0168
:100088000630210095003D30200095000B11F70146
:100098008B16C03024008D00210095138B1320008F
:1000A8008C140C158C150C168C160D148D140D153E
:1000B8008D150D168D160D178D171014901410151B
:1000C800FF308C00FF308D00FF308E00FF308F0036
:1000D800FF3090008C130C130E108E100E118E1121
:1000E8000F108F10DF01DF0A0F170E1A8D287928DD
:1000F8008C179A280C179A280E149A288E149A2866
:100108000E159A288E159A280F149A288F14DF0135
:100118009A285F08FF3E031C9A28840008300402CE
:1001280003189A2882310435B83E82000E1A9A289C
:100138008C130C130E108E100E118E110F108F10C1
:10014800F0308E003F308C00FC308F000130DA0038
:100158005A08DF0779288231752280312000DF01B3
:1001680010305F0203182729DE0103305E020318EE
:100178001F298231E02280312000DA005A08DD0090
:100188005D080D3A031D03290D30DA000330DB004A
:100198005B08F6005F088231A6228031A03E20006D
:1001A8005E07DC005C08860087015A0881005E3023
:1001B800DA005A08D0005F308231472280312000AF
:1001C80051085004031D16298231E0228031200095
:1001D800DA005A08DD005D080A3A031D1629823143
:1001E800E0228031DD3A0319162910302000DA00A8
:1001F8005A08DF000330DA005A08DE0016295D08C5
:10020800DA000330DB005B08F6005F088231A622C3
:100218008031A03E20005E07DC005C088600870174
:100228005A08810001302000DA005A08DE0703303E
:100238005E02031CBD280130DA005A08DF071030BF
:100248005F02031CB82811305F020318AF288231FF
:10025800E02280310D3A031DAF288231E02280313F
:100268000A3A031DAF288231E0228031DD3A0319B2
:10027800AF28813141218031AF282000D8011030CA
:10028800580203180800D9010330590203187629C7
:100298000330D3005308F60058088231A622813172
:1002A800A03E20005907D4005408860087010108A1
:1002B800D5000330D6005608F60058088231A62229
:1002C8008131203E20005907D70057088600870152
:1002D800550881000130D3005308D907033059026B
:1002E800031C4C290130D3005308D8074329770849
:1002F80020004402031C0C1177084502031C0C1053
:1003080077084602031C8C1177084702031C8C10DF
:1003180077084802031C8C1277084902031C0C1248
:1003280077084A02031C0E1177084B02031C8C1332
:1003380077084C02031C0C1377084D02031C8E101F
:1003480077084E02031C8E1177084F020318080025
:100358000E100800770820003802031C0C117708DB
:100368003902031C0C1077083A02031C8C11770819
:100378003B02031C8C1077083C02031C8C12770884
:100388003D02031C0C1277083E02031C0E1177086D
:100398003F02031C8C1377084002031C0C137708D8
:1003A8004102031C8E1077084202031C8E11770845
:1003B8004302031808000E100800770820002C02DA
:1003C800031C0C1177082D02031C0C1077082E0251
:1003D800031C8C1177082F02031C8C10770830023D
:1003E800031C8C1277083102031C0C1277083202A6
:1003F800031C0E1177083302031C8C137708340290
:10040800031C0C1377083502031C8E10770836027C
:10041800031C8E1177083702031808000E10080015
:10042800770820002002031C0C1177082102031C06
:100438000C1077082202031C8C1177082302031C76
:100448008C1077082402031C8C1277082502031CE1
:100458000C1277082602031C0E1177082702031CCA
:100468008C1377082802031C0C1377082902031C35
:100478008E1077082A02031C8E1177082B020318A6
:1004880008000E1008002000D200500886008701DE
:10049800023001020318552A0130F6007608D00709
:1004A800722A5208860087010F3001020318652A54
:1004B80050088600870181010130F6007608D207CE
:1004C800722A0130F6007608D0070130F600760867
:1004D800D2070130D0000030D1000800D001D1018E
:1004E8000800F601F60A8231E0228231FF3A031948
:1004F800772A8231E0228231533A031D8A2A8231D7
:10050800E0228231543A031D8A2AF601F6080319BB
:100518000800772A70302100990023008C018D0192
:100528008F01900121008C018D01B0308E003C308C
:100538008F00900120008C018D0180308E008F018A
:10054800900108002000D200D101521CAF2A760881
:10055800D0005008D1070310F60D0310D20CD208B2
:10056800031DA92A5108080080317C2880317E2883
:100578008031802880318228803184288031862803
:100588008031882880318A28F708031DCE2A8231D5
:10059800D82208007708F200F3017208F000730807
:1005A800F100823114220800FF3020008C000E1563
:1005B8008E148E150E1408002000911EE02A911248
:1005C800230019080800F00023009E1CE82A700880
:1005D8009A000800640080010131890BEF2A003479
:020000040001F9
:04000E0084FFFFFF6D
:00000001FF
