:0400000080311A2809
:100008007E14803120007F08FC000B1D16283D302F
:1000180095008131E12180312000911E1528D00101
:10002800D00A0B117C08FF007E10090080311C28C3
:1000380096308400233085005A30FE000030FF00DF
:100048008231DC228031FD012030840000308500BF
:100058003230FE000030FF008231DC228031203057
:100068008400013085003030FE000030FF0082310E
:10007800DC228031A0308400013085004630FE004B
:100088000030FF008231DC227E10200080314C28B5
:10009800FF302000D8005808E200A0308600013068
:1000A8008700A0308400003085004630D800160054
:1000B8001A00D80B5B28E301E401E501E70182316E
:1000C800C522803121008E170E13333023009B0088
:1000D80090309D0024309E009F010430210095003F
:1000E8003D30200095000B11D1018B16C030240043
:1000F8008D00210095138B1302302000D80058087A
:10010800E700E9014030690203189A28FF30D80057
:100118006908A03E86008701580881000130D80090
:100128005808E90740306902031C8A286708023A20
:10013800031DDF29E901E90A113069020318DE28E5
:10014800E801023068020318D6286908D80001308F
:10015800D835FF3E031DAC2858356807FE3ED90048
:100168005908E6006608A03E860087010108D80005
:100178006908D9000130D935890BBF285030590793
:10018800DA0068085A07DB005B0886000130870040
:10019800580881000130D8005808E8070230680282
:1001A800031CA9280130D8005808E9071130690252
:1001B800031CA428E901E90A11306902031875290A
:1001C8000314690D503E86000130870001081F396D
:1001D8000907D8006908D900DA015908D2005A0875
:1001E800D3000530D4000030D50082318A22803116
:1001F80096302000DB002330DC0052085B07DD006E
:1002080053085C3DDE005D0886005E0887005808DC
:1002180081006935503E8600013087000108D8000A
:100228006908D900DA015908D2005A08D300053004
:10023800D4000030D50082318A2280312000520853
:10024800013EDB000030533DDC009630DD002330FA
:10025800DE005B085D07DF005C085E3DE0005F08CC
:10026800860060088700580881000314690D503E15
:100278008600013087000108D8000530D836890B80
:10028800422958080739D9006908DA00DB015A08F9
:10029800D2005B08D3000530D4000030D50082318D
:1002A8008A22803120005208013EDC000030533D94
:1002B800DD009630DE002330DF005C085E07E000DA
:1002C8005D085F3DE1006008860061088700590805
:1002D80081000130D8005808E90711306902031C71
:1002E800E42896308600233087004A3101084038D8
:1002F800D800A03086002330870058088100963047
:10030800860023308700543101082038D800AA30ED
:1003180086002330870058088100B63086002330D5
:10032800870001080138D800B630860023308700DE
:1003380058088100C0308600233087000108023841
:10034800D800C03086002330870058088100CA30A2
:1003580086002330870001080438D800CA30860098
:100368002330870058088100D43086002330870066
:1003780001080838D800D430860023308700580890
:100388008100DF3086002330870001080138D8005B
:10039800DF3086002330870058088100E930860066
:1003A8002330870001080238D800E930860023305E
:1003B8008700580881008B17E0290130F60076087D
:1003C800FD077D08F600F7017608F0007708F100D0
:1003D8000530F2000030F3008231A82281319630D6
:1003E800F8002330F9007008780786007108793D15
:1003F8008700010820008C007D08F600F7017608C8
:10040800F0007708F1000530F2000030F300823187
:10041800A82281317008013EF8000030713DF900D2
:100428009630FA002330FB0078087A0786007908AE
:100438007B3D8700010820008D007D08F600F7014C
:100448007608F0007708F1000530F2000030F3007C
:100458008231A82281317008023EF8000030713DD7
:10046800F9009630FA002330FB0078087A078600F6
:1004780079087B3D8700010820008E007D08F60082
:10048800F7017608F0007708F1000530F200003037
:10049800F3008231A82281317008033EF800003051
:1004A800713DF9009630FA002330FB0078087A078E
:1004B800860079087B3D8700010820008F007D08B1
:1004C800F600F7017608F0007708F1000530F20031
:1004D8000030F3008231A82281317008043EF80010
:1004E8000030713DF9009630FA002330FB0078089F
:1004F8007A07860079087B3D870001082000900074
:100508007D08103A031D0800FD0108002000D601EF
:10051800D701521C932A5408D6075508D73D0130F5
:10052800D435D50D890B942A0130D336D20C890BDA
:10053800992A53085204031D8D2A5708D301D3075B
:100548005608D201D2070800F401F501701CB02A40
:100558007208F4077308F53D0130F235F30D890B85
:10056800B12A0130F136F00C890BB62A71087004F3
:10057800031DAA2A7508F101F1077408F001F007B4
:10058800080070302100990023008C018D018F0133
:10059800900121008C018D01B0308E003C308F001D
:1005A800900120008C018D0180308E008F010800A1
:1005B8006400800101310130FE020030FF3B7F08FA
:0805C8007E0403190034DD2A52
:020000040001F9
:04000E0084FFFFFF6D
:00000001FF
