:0400000080311A2809
:100008007E14803120007F08F6000B1D16283D3035
:1000180095008131B92180312000911E1528FA01FF
:10002800FA0A0B117608FF007E10090080311C289F
:1000380096308400233085005A30FE000030FF00DF
:1000480084316D248031F701F801F901FA01FB01CF
:1000580020308400003085002530FE000030FF008D
:1000680084316D248031A030840000308500503008
:10007800FE000030FF0084316D2480312030840080
:10008800013085004630FE000030FF0084316D24C9
:100098008031A0308400013085003030FE0000300F
:1000A800FF0084316D247E1020008331C72B02307D
:1000B8002000D5005508E100C00140304002031877
:1000C8007628FF30D5004008203E860001308700A2
:1000D800550881000130D5005508C007403040025E
:1000E800031C65286108023A031D0800C001C00A04
:1000F800113040020318BA28C10102304102031826
:10010800B2284008D5000130D535FF3E031D8828A8
:1001180055354107FE3ED6005608C3004308203E29
:100128008600013087000108D5004008D60001305C
:10013800D635890B9C2820305607D7004108570729
:10014800D800580886008701550881000130D5007D
:100158005508C10702304102031C85280130D5002B
:100168005508C00711304002031C8028C001C00A8E
:100178001130400203184E290314400D203E86001A
:10018800870101081F390907D5004008D600D701A3
:100198005608CF005708D0000530D1000030D200F3
:1001A80084312324803196302000D8002330D900B0
:1001B8004F085807DA005008593DDB005A088600F6
:1001C8005B088700550881004035203E860087017E
:1001D8000108D5004008D600D7015608CF005708B7
:1001E800D0000530D1000030D20084312324803182
:1001F80020004F08013ED8000030503DD90096300D
:10020800DA002330DB0058085A07DC0059085B3D48
:10021800DD005C0886005D0887005508810003142E
:10022800400D203E860087010108D5000530D536EF
:10023800890B1B2955080739D6004008D700D80173
:100248005708CF005808D0000530D1000030D20040
:1002580084312324803120004F08013ED90000302A
:10026800503DDA009630DB002330DC0059085B078C
:10027800DD005A085C3DDE005D0886005E088700E8
:10028800560881000130D5005508C00711304002DA
:10029800031CC02896308600233087004A310108A5
:1002A8004038D500A03086002330870055088100EB
:1002B8009630860023308700543101082038D50055
:1002C800AA3086002330870055088100B6308600A2
:1002D8002330870001080138D500B6308600233066
:1002E800870055088100C030860023308700010848
:1002F8000238D500C03086002330870055088100B9
:10030800CA3086002330870001080438D500CA3077
:1003180086002330870055088100D43086002330BA
:10032800870001080838D500D430860023308700BC
:1003380055088100DF308600233087000108013826
:10034800D500DF3086002330870055088100E9306A
:1003580086002330870001080238D500E93086007E
:100368002330870055088100080002302000C500AE
:100378004508E100C001403040020318D429FF308D
:10038800C5004008203E86000130870045088100EE
:100398000130C5004508C00740304002031CC3298E
:1003A8006108023A031D0800C001C00A113040026A
:1003B8000318182AC101023041020318102A400804
:1003C800C5000130C535FF3E031DE6294535410707
:1003D800FE3EC6004608C3004308203E86000130A2
:1003E80087000108C5004008C6000130C635890BE2
:1003F800FA2920304607C70041084707C8004808BF
:1004080086008701450881000130C5004508C107FD
:1004180002304102031CE3290130C5004508C0072A
:1004280011304002031CDE29C001C00A113040020D
:100438000318AC2A0314400D203E860087010108EA
:100448001F390907C5004008C600C7014608F00063
:100458004708F1000530F2000030F30084314124F0
:10046800813196302000C8002330C9007008480741
:10047800CA007108493DCB004A0886004B0887002E
:10048800450881004035203E860087010108C500E7
:100498004008C600C7014608F0004708F1000530CB
:1004A800F2000030F3008431412481317008013EAC
:1004B8002000C8000030713DC9009630CA002330C2
:1004C800CB0048084A07CC0049084B3DCD004C08F2
:1004D80086004D088700450881000314400D203E22
:1004E800860087010108C5000530C536890B792AC1
:1004F80045080739C6004008C700C8014708F0008A
:100508004808F1000530F2000030F300843141243E
:1005180081317008013E2000C9000030713DCA00D9
:100528009630CB002330CC0049084B07CD004A0851
:100538004C3DCE004D0886004E08870046088100D5
:100548000130C5004508C00711304002031C1E2AAF
:1005580096308600233087004A3101084038C500AC
:10056800A030860023308700450881009630860039
:1005780023308700543101082038C500AA3086008E
:100588002330870045088100B63086002330870075
:1005980001080138C500B6308600233087004508B9
:1005A8008100C03086002330870001080238C5006A
:1005B800C03086002330870045088100CA30860095
:1005C8002330870001080438C500CA30860023306C
:1005D800870045088100D430860023308700010851
:1005E8000838C500D43086002330870045088100CC
:1005F800DF3086002330870001080138C500DF306E
:1006080086002330870045088100E93086002330C2
:10061800870001080238C500E930860023308700CA
:1006280045088100080001302000D5005508C207A0
:100638008F1E222B1030D5005508C2004208D50065
:10064800D6015508CF005608D0000530D10000303B
:10065800D20084312324833196302000D700233000
:10066800D8004F08570786005008583D87000108F2
:100678008C004208D500D6015508CF005608D00096
:100688000530D1000030D20084312324833120008A
:100698004F08013ED7000030503DD8009630D900B1
:1006A8002330DA0057085907860058085A3D870052
:1006B80001088D004208D500D6015508CF0056081C
:1006C800D0000530D1000030D2008431232483319A
:1006D80020004F08023ED7000030503DD800963029
:1006E800D9002330DA0057085907860058085A3DC0
:1006F800870001088E004208D500D6015508CF00B2
:100708005608D0000530D1000030D20084312324AF
:10071800833120004F08033ED7000030503DD800F9
:100728009630D9002330DA00570859078600580850
:100738005A3D870001088F004208D500D6015508A8
:10074800CF005608D0000530D1000030D2008431E7
:100758002324833120004F08043ED7000030503D49
:10076800D8009630D9002330DA0057085907860098
:1007780058085A3D8700010890004208103A031DA6
:100788000800C2010800FF302000DF005F08E00019
:1007980084310124833121008E170E133330230056
:1007A8009B0090309D0024309E009F0100308431D2
:1007B8005E2483312000DF005F08E0000230210062
:1007C80095003D30200095000B11C4018B16C030F8
:1007D80024008D00210095138B1380315B20833119
:1007E80020000F1EF42B83311723833120000F1AAA
:1007F800FA2B833117238331F42B703021009900B1
:1008080023008C018D018F01900121008C018D0145
:10081800B0308E000C308F00900120008C018D01CB
:1008280080308E008F0125009A01930120009E01DF
:100838009F0122008F012F0091019A0108002000DA
:10084800D301D4014F1C2C2C5108D3075208D43D96
:100858000130D135D20D890B2D2C0130D036CF0C7B
:10086800890B322C50084F04031D262C5408D00144
:10087800D0075308CF01CF070800F401F501701C19
:10088800492C7208F4077308F53D0130F235F30D71
:10089800890B4A2C0130F136F00C890B4F2C71086A
:1008A8007004031D432C7508F101F1077408F00169
:1008B800F00708002000D1005108CF00D0014F08F0
:1008C80023009100200050082300920015141308FB
:1008D80008006400800101310130FE020030FF3B56
:0A08E8007F087E04031900346E2C13
:020000040001F9
:04000E0084FFFFFF6D
:00000001FF
