:0400000080311D2806
:100008007E14803120007F08F5000B1D18283D3034
:1000180095000130F4007408F7078231B522803169
:1000280009308231E3220B1175082000FF007E1091
:10003800090080311F28F701203084000030850036
:1000480030308231EA228031A030840000308500CF
:1000580030308231EA227E1020008031332820009F
:10006800DF01DF0A82318C22803121008E170E13C6
:10007800333023009B0090309D0024309E009F0168
:100088000630210095003D30200095000B11F70146
:100098008B16C03024008D00210095138B1320008F
:1000A8008C140C158C150C168C160D148D140D153E
:1000B8008D150D168D160D178D171014901410151B
:1000C800FF308C00FF308D00FF308E00FF308F0036
:1000D800FF3090008D0123008F018E288D17852811
:1000E8000D1785288D1685280D1685288D158528C8
:1000F8000D1585288D1485280D148528DF018D019F
:100108000F168231C522803120000F120130DA002B
:100118005A08DF0720005F08013A03197228023ADB
:1001280003197428063A03197628023A031978281D
:100138000E3A03197A28023A03197C28063A031959
:100148007E28023A031980281F3A03198228832837
:1001580085288231732280312000DF0110305F0250
:1001680003182529DE0103305E0203181D29823198
:10017800DC2280312000DA005A08DD005D080D3AE3
:10018800031D01290D30DA000330DB005B08F6009F
:100198005F088231A3228031A03E20005E07DC0088
:1001A8005C08860087015A0881005E30DA005A0828
:1001B800D0005F3082314522803120005108500440
:1001C800031D14298231DC2280312000DA005A080C
:1001D800DD005D080A3A031D14298231DC228031D2
:1001E800DD3A0319142910302000DA005A08DF001C
:1001F8000330DA005A08DE0014295D08DA000330FB
:10020800DB005B08F6005F088231A3228031A03E44
:1002180020005E07DC005C08860087015A08810020
:1002280001302000DA005A08DE0703305E02031CA2
:10023800BB280130DA005A08DF0710305F02031CC0
:10024800B62811305F020318AD288231DC228031D4
:100258000D3A031DAD288231DC2280310A3A031D94
:10026800AD288231DC228031DD3A0319AD28813195
:100278003F218031AD282000D801103058020318E2
:100288000800D90103305902031874290330D30038
:100298005308F60058088231A3228131A03E20007D
:1002A8005907D4005408860087010108D500033097
:1002B800D6005608F60058088231A3228131203E24
:1002C80020005907D7005708860087015508810084
:1002D8000130D3005308D90703305902031C4A29B7
:1002E8000130D3005308D807412977082000440279
:1002F800031C0C1177084502031C0C1077084602F2
:10030800031C8C1177084702031C8C1077084802DD
:10031800031C8C1277084902031C0C1277084A0246
:10032800031C0E1177084B02031C8C1377084C0230
:10033800031C0C1377084D02031C8E1077084E021D
:10034800031C8E1177084F02031808000E100800CE
:10035800770820003802031C0C1177083902031CA7
:100368000C1077083A02031C8C1177083B02031C17
:100378008C1077083C02031C8C1277083D02031C82
:100388000C1277083E02031C0E1177083F02031C6B
:100398008C1377084002031C0C1377084102031CD6
:1003A8008E1077084202031C8E1177084302031847
:1003B80008000E100800770820002C02031C0C11FE
:1003C80077082D02031C0C1077082E02031C8C11D1
:1003D80077082F02031C8C1077083002031C8C123C
:1003E80077083102031C0C1277083202031C0E1125
:1003F80077083302031C8C1377083402031C0C1390
:1004080077083502031C8E1077083602031C8E11FC
:1004180077083702031808000E1008007708200034
:100428002002031C0C1177082102031C0C1077080A
:100438002202031C8C1177082302031C8C107708F6
:100448002402031C8C1277082502031C0C1277085F
:100458002602031C0E1177082702031C8C13770849
:100468002802031C0C1377082902031C8E10770836
:100478002A02031C8E1177082B02031808000E109D
:1004880008002000D20050088600870102300102CF
:100498000318532A0130F6007608D007702A52084C
:1004A800860087010F3001020318632A500886006E
:1004B800870181010130F6007608D207702A0130E1
:1004C800F6007608D0070130F6007608D20701302A
:1004D800D0000030D1000800D001D1010800F60199
:1004E800F60A8231DC228231FF3A0319752A8231F9
:1004F800DC228231533A031D882A8231DC22823180
:10050800543A031D882AF601F60803190800752ACB
:1005180070302100990023008C018D018F0190011A
:1005280021008C018D01B0308E000E308F009001BB
:1005380020008C018D0180308E008F010800200082
:10054800D200D101521CAC2A7608D0005008D1073D
:100558000310F60D0310D20CD208031DA62A510869
:100568000800F708031DBB2A8231D4220800770847
:10057800F200F3017208F0007308F10082311222D0
:10058800080015302000D2004B30D100D130D00007
:10059800D00BCC2AD10BCC2AD20BCC2A00000800D5
:1005A800FF3020008C000E158E148E150E140800D6
:1005B8002000911EDC2A9112230019080800F0007F
:1005C80023009E1CE42A70089A0008006400800139
:0805D8000131890BEB2A00340C
:020000040001F9
:04000E0084FFFFFF6D
:00000001FF
