:0400000080311A2809
:100008007E14803120007F08FC000B1D16283D302F
:1000180095008331522380312000911E1528E60176
:10002800E60A0B117C08FF007E10090080311C28AD
:1000380096308400233085005A30FE000030FF00DF
:100048008431DE248031FD01E601E701203084009F
:10005800013085003030FE000030FF008431DE249E
:100068008031A0308400013085003030FE0000303F
:10007800FF008431DE248031203084000230850086
:100088004630FE000030FF008431DE247E10200060
:1000980080314E28FF302000AF002F08E1002030CB
:1000A800860002308700A03084000030850046308A
:1000B800AF0016001A00AF0B5D28DE01DF01E0017A
:1000C800E3018431B724803121008E170E133330B9
:1000D80023009B0090309D0024309E009F0100303B
:1000E8008431CF2480312000AF002F08E100E501E2
:1000F800103065020318B328650884314F24803115
:100108002000AF006508B000B1013008A000310838
:10011800A1000530A2000030A30084317C24803186
:1001280020002008013EB2000030213DB300963087
:10013800B4002330B50032083407B6003308353D23
:10014800B70036088600370887002F08810001307D
:10015800AF002F08E50710306502031C8028043023
:10016800210095003D30200095000B11E7018B160A
:10017800C03024008D00210095138B1351302000CE
:10018800AF002F082100A0008F302000AF002F08FB
:100198002100A1003F302000AF002F082100A2005D
:1001A80008302000AF002F082100A30040302000B5
:1001B800AF002F082100A400A501A60118302000D7
:1001C800AF002F082100A70048302000AF002F08FB
:1001D8002100A800A901AA0108302000AF002F08BB
:1001E8002100AB0040302000AF002F082100AC00F8
:1001F800AD01AE0128302000AF002F082100AF006C
:1002080044302000AF002F082100B000B101B20136
:1002180008302000AF002F082100B3004030200034
:10022800AF002F082100B400B501B6014830200006
:10023800AF002F082100B70042302000AF002F0880
:100248002100B800B901BA0108302000AF002F081A
:100258002100BB007F302000AF002F082100BC0028
:10026800FF302000AF002F082100BD003F302000E4
:10027800AF002F082100BE00FF302000AF002F087C
:100288002100BF007F302000AF002F082100C000F0
:10029800FF302000AF002F082100C1003F302000B0
:1002A800AF002F082100C200FF302000AF002F0848
:1002B8002100C30040302000AF002F082100C400F7
:1002C800C501C60108302000AF002F082100C70073
:1002D80040302000AF002F082100C800C901CA0122
:1002E80008302000AF002F082100CB00403020004C
:1002F800AF002F082100CC00CD01CE01083020002E
:10030800AF002F082100CF0040302000AF002F0899
:100318002100D000D101D20108302000AF002F0801
:100328002100D30040302000AF002F082100D40066
:10033800D501D60108302000AF002F082100D700D2
:1003480040302000AF002F082100D800D901DA0181
:1003580008302000AF002F082100DB0041302000CA
:10036800AF002F082100DC008F302000AF002F08DD
:100378002100DD003F302000AF002F082100DE0003
:1003880008302000AF002F082100DF0002302000D5
:10039800AF002F08E3006308023A031D502BE50164
:1003A800E50A113065020318122AE40102306402DA
:1003B80003180A2A6508AF000130AF35FF3E031D58
:1003C800E1292F356407FC3EB0003008E2006208DE
:1003D800A03E860087010108AF006508B000013023
:1003E800B035890BF4293E303007B1006408310775
:1003F800B2003208860087012F0881000130AF0063
:100408002F08E40702306402031CDE290130AF0024
:100418002F08E50711306502031CD929E501E50A13
:10042800113065020318502B65353E3E8600870162
:100438000108FE39AF006508B000B1013008A0001E
:100448003108A1000530A2000030A30084317C24CB
:10045800803196302000B2002330B30020083207E4
:10046800B4002108333DB5003408860035088700FC
:100478002F0881000314650D3E3E860087010108A0
:100488000F39AF006508B000B1013008A00031088D
:10049800A1000530A2000030A30084317C24803103
:1004A80020002008023EB2000030213DB300963003
:1004B800B4002330B50032083407B6003308353DA0
:1004C800B70036088600370887002F088100031414
:1004D800650D3E3E860087010108AF000630AF3645
:1004E800890B732A02302F05B00065353E3E860021
:1004F8008701010801393004B1006508B200B30171
:100508003208A0003308A1000530A2000030A30083
:1005180084317C24803120002008033EB400003060
:10052800213DB5009630B6002330B70034083607B1
:10053800B8003508373DB900380886003908870003
:10054800310881006508103A031DCC2A6508AF0000
:10055800B0012F08A0003008A1000530A20000302B
:10056800A30084317C24803120002008033EB100A0
:100578000030213DB2009630B3002330B40031087A
:10058800330786003208343D87000108B038EF2A67
:100598006518152B6508AF00B0012F08A0003008BA
:1005A800A1000530A2000030A30084317C248031F2
:1005B80020002008033EB1000030213DB2009630F3
:1005C800B3002330B4003108330786003208343DC5
:1005D800870001089038B5006508B600B7013608ED
:1005E800A0003708A1000530A2000030A300843124
:1005F8007C24803120002008033EB8000030213DD3
:10060800B9009630BA002330BB0038083A07BC005E
:1006180039083B3DBD003C0886003D088700350889
:1006280081000314650D3E3E860087010108AF0076
:100638000430AF36890B1D2B2F080739B000650829
:10064800B100B2013108A0003208A1000530A200B3
:100658000030A30084317C24803120002008043E2F
:10066800B3000030213DB4009630B5002330B60009
:1006780033083507B7003408363DB8003708860018
:1006880038088700300881000130AF002F08E507DF
:1006980011306502031C182A8B17512B0130F60004
:1006A8007608FD077D08F600F7017608F000770860
:1006B800F1000530F2000030F30084319A248331D0
:1006C8009630F8002330F900700878078600710822
:1006D800793D8700010820008C007D08F600F701AD
:1006E8007608F0007708F1000530F2000030F300DA
:1006F80084319A2483317008013EF8000030713D3E
:10070800F9009630FA002330FB0078087A07860053
:1007180079087B3D8700010820008D007D08F600E0
:10072800F7017608F0007708F1000530F200003094
:10073800F30084319A2483317008023EF8000030B7
:10074800713DF9009630FA002330FB0078087A07EB
:10075800860079087B3D8700010820008E007D080F
:10076800F600F7017608F0007708F1000530F2008E
:100778000030F30084319A2483317008033EF80076
:100788000030713DF9009630FA002330FB007808FC
:100798007A07860079087B3D8700010820008F00D2
:1007A8007D08F600F7017608F0007708F1000530BB
:1007B800F2000030F30084319A2483317008043E3B
:1007C800F8000030713DF9009630FA002330FB0044
:1007D80078087A07860079087B3D870001082000A1
:1007E80090007D08103A031D0800FD010800200054
:1007F800A601A11F062CA009A109A00A0319A10A94
:10080800A601A60AA31F112CA209A309A20A03196B
:10081800A30A0130A4002408A606A701A8012108FC
:1008280020040319402CA501A50AA11B252C013081
:10083800A035A10D890B1C2C0130A4002408A507A4
:10084800192C0130A735A80D890B262C2108230265
:10085800031D302C20082202031C372C2008A2027A
:100868002108A33B27140130A136A00C890B382C92
:100878000130A502031D252C26080319482CA709B9
:10088800A809A70A0319A80A2808A101A107270887
:10089800A001A00708002000AE00AD012E1C562CB8
:1008A800AD01AD0A0230A0000030A1002E08A90059
:1008B800AA012908A2002A08A3008331FB23843156
:1008C80020002008FF3A013E073EAB002B08AE008F
:1008D800AC012E082C0203187A2C2D35A900290802
:1008E800AD000130A9002908AC076D2C2D080800BF
:1008F8002000A401A501201C852C2208A407230898
:10090800A53D0130A235A30D890B862C0130A136F7
:10091800A00C890B8B2C21082004031D7F2C250893
:10092800A101A1072408A001A0070800F401F5010E
:10093800701CA22C7208F4077308F53D0130F235DB
:10094800F30D890BA32C0130F136F00C890BA82C80
:1009580071087004031D9C2C7508F101F1077408D7
:10096800F001F007080070302100990023008C0185
:100978008D018F01900121008C018D01B0308E0016
:100988000C308F00900120008C018D0180308E008A
:100998008F01900108002000A2002208A000A101F8
:1009A800200823009100200021082300920015143C
:1009B800130808006400800101310130FE02003094
:0C09C800FF3B7F087E0403190034DF2C85
:020000040001F9
:04000E0084FFFFFF6D
:00000001FF
