:0400000080311A2809
:100008007E14803120007F08FC000B1D16283D302F
:1000180095008231962280312000911E1528E60134
:10002800E60A0B117C08FF007E10090080311C28AD
:1000380096308400233085005A30FE000030FF00DF
:10004800843122248031FD01E601E701203084005B
:10005800013085003030FE000030FF00843122245A
:100068008031A0308400013085003030FE0000303F
:10007800FF00843122248031203084000230850042
:100088004630FE000030FF00843122247E1020001C
:1000980080314E28FF302000AF002F08DE002030CE
:1000A800860002308700A03084000030850046308A
:1000B800AF0016001A00AF0B5D28E101E401E20170
:1000C800E0018331FB23803121008E170E1333307A
:1000D80023009B0090309D0024309E009F0100303B
:1000E8008431132480312000AF002F08DE00E501A1
:1000F800103065020318B3286508833193238031D3
:100108002000AF006508B000B1013008A000310838
:10011800A1000530A2000030A3008331C023803144
:1001280020002008013EB2000030213DB300963087
:10013800B4002330B50032083407B6003308353D23
:10014800B70036088600370887002F08810001307D
:10015800AF002F08E50710306502031C8028043023
:10016800210095003D30200095000B11E7018B160A
:10017800C03024008D00210095138B1746302000D5
:100188006102031CC928E101E02866080319E02878
:1001980084312E2480312000AF002F08E400640849
:1001A800AF006108A03E860087012F08810001305A
:1001B800AF002F08E107E6016408473A031DE72866
:1001C800E201E20AFE2862080319FE286208013AE1
:1001D800031DF3286408653A0319FE28FD28620800
:1001E800023A031DFE287430AF002F08E400E10135
:1001F800FE28E2016108403A031D092964080A3A09
:10020800031D1729E001E00A17296008013A031DB8
:10021800172964080B3A031D16290230AF002F086E
:10022800E0001729E0016008023A031DC228E00136
:10023800E501E50A1130650203185B29E301023084
:100248006302031853296508AF000130AF35FF3E3C
:10025800031D2A292F356307FC3EB0003008DF0054
:100268005F08A03E860087010108AF006508B0005E
:100278000130B035890B3D293E303007B1006308A5
:100288003107B2003208860087012F08810001304B
:10029800AF002F08E30702306302031C272901304F
:1002A800AF002F08E50711306502031C2229E5017C
:1002B800E50A113065020318C22865353E3E8600FE
:1002C80087010108FE39AF006508B000B1013008A8
:1002D800A0003108A1000530A2000030A30083313E
:1002E800C023803196302000B2002330B3002008AC
:1002F8003207B4002108333DB500340886003508BC
:1003080087002F0881000314650D3E3E8600870193
:1003180001080F39AF006508B000B1013008A0002E
:100328003108A1000530A2000030A3008331C023AA
:10033800803120002008023EB2000030213DB30089
:100348009630B4002330B50032083407B6003308BD
:10035800353DB70036088600370887002F0881002A
:100368000314650D3E3E860087010108AF00063084
:10037800AF36890BBC2902302F05B00065353E3EEB
:1003880086008701010801393004B1006508B20010
:10039800B3013208A0003308A1000530A2000030E4
:1003A800A3008331C023803120002008033EB4001D
:1003B8000030213DB5009630B6002330B700340830
:1003C8003607B8003508373DB900380886003908BF
:1003D8008700310881006508103A031D152A650851
:1003E800AF00B0012F08A0003008A1000530A2001E
:1003F8000030A3008331C023803120002008033E51
:10040800B1000030213DB2009630B3002330B40073
:100418003108330786003208343D87000108B038B8
:10042800382A65185E2A6508AF00B0012F08A000B9
:100438003008A1000530A2000030A3008331C0239A
:10044800803120002008033EB1000030213DB20079
:100458009630B3002330B4003108330786003208E1
:10046800343D870001089038B5006508B600B7012B
:100478003608A0003708A1000530A2000030A3000C
:100488008331C023803120002008033EB8000030AB
:10049800213DB9009630BA002330BB0038083A072E
:1004A800BC0039083B3DBD003C0886003D0887007C
:1004B800350881000314650D3E3E8600870101085A
:1004C800AF000430AF36890B662A2F080739B00011
:1004D8006508B100B2013108A0003208A10005305A
:1004E800A2000030A3008331C023803120002008FF
:1004F800043EB3000030213DB4009630B5002330EF
:10050800B60033083507B7003408363DB800370859
:10051800860038088700300881000130AF002F08B6
:10052800E5075D290130F6007608FD077D08F6002D
:10053800F7017608F0007708F1000530F200003086
:10054800F3008331DE2382319630F8002330F9003E
:100558007008780786007108793D87000108200037
:100568008C007D08F600F7017608F0007708F100A6
:100578000530F2000030F3008331DE238231700849
:10058800013EF8000030713DF9009630FA00233042
:10059800FB0078087A07860079087B3D8700010808
:1005A80020008D007D08F600F7017608F000770836
:1005B800F1000530F2000030F3008331DE23823190
:1005C8007008023EF8000030713DF9009630FA00DC
:1005D8002330FB0078087A07860079087B3D87007E
:1005E800010820008E007D08F600F7017608F0006B
:1005F8007708F1000530F2000030F3008331DE2384
:1006080082317008033EF8000030713DF9009630E1
:10061800FA002330FB0078087A07860079087B3DCA
:100628008700010820008F007D08F600F701760892
:10063800F0007708F1000530F2000030F300833154
:10064800DE2382317008043EF8000030713DF90065
:100658009630FA002330FB0078087A07860079087C
:100668007B3D87000108200090007D08103A031D9B
:100678000800FD0108002000A601A11F4A2BA009BF
:10068800A109A00A0319A10AA601A60AA31F552BAE
:10069800A209A309A20A0319A30A0130A400240885
:1006A800A606A701A801210820040319842BA50187
:1006B800A50AA11B692B0130A035A10D890B602B60
:1006C8000130A4002408A5075D2B0130A735A80D2B
:1006D800890B6A2B21082302031D742B2008220290
:1006E800031C7B2B2008A2022108A33B27140130FE
:1006F800A136A00C890B7C2B0130A502031D692BA8
:10070800260803198C2BA709A809A70A0319A80A00
:100718002808A101A1072708A001A00708002000B8
:10072800AE00AD012E1C9A2BAD01AD0A0230A0001F
:100738000030A1002E08A900AA012908A2002A0851
:10074800A30083313F23833120002008FF3A013E74
:10075800073EAB002B08AE00AC012E082C02031894
:10076800BE2B2D35A9002908AD000130A9002908A4
:10077800AC07B12B2D0808002000A401A501201CFE
:10078800C92B2208A4072308A53D0130A235A30DD3
:10079800890BCA2B0130A136A00C890BCF2B21085D
:1007A8002004031DC32B2508A101A1072408A001CB
:1007B800A0070800F401F501701CE62B7208F40785
:1007C8007308F53D0130F235F30D890BE72B013045
:1007D800F136F00C890BEC2B71087004031DE02B2B
:1007E8007508F101F1077408F001F007080070308E
:1007F8002100990023008C018D018F0190012100B7
:100808008C018D01B0308E000C308F0090012000DB
:100818008C018D0180308E008F019001080020002E
:10082800A2002208A000A1012008230091002000B6
:1008380021082300920015141308080064008001A1
:1008480001310130FE020030FF3B7F087E040319AE
:100858000034232C2000911E2E2C911223001908FD
:02086800080086
:020000040001F9
:04000E0084FFFFFF6D
:00000001FF
