:0400000080311A2809
:100008007E14803120007F08FC000B1D16283D302F
:1000180095008231922280312000911E1528E60138
:10002800E60A0B117C08FF007E10090080311C28AD
:1000380096308400233085005A30FE000030FF00DF
:1000480084311E248031FD01E601E701203084005F
:10005800013085003030FE000030FF0084311E245E
:100068008031A0308400013085003030FE0000303F
:10007800FF0084311E248031203084000230850046
:100088004630FE000030FF0084311E247E10200020
:1000980080314E28FF302000AF002F08DE002030CE
:1000A800860002308700A03084000030850046308A
:1000B800AF0016001A00AF0B5D28E101E401E20170
:1000C800E0018331F723803120000F1784312A247F
:1000D800803120000F130530B1000F30B000F4302C
:1000E800AF00AF0B7528B00B7528B10B75286828C1
:1000F800650883318F2380312000AF006508B00088
:10010800B1013008A0003108A1000530A20000307C
:10011800A3008331BC23803120002008013EB200B7
:100128000030213DB3009630B4002330B5003208CA
:100138003407B6003308353DB7003608860037085F
:1001480087002F0881000130AF002F08E507103025
:100158006502031C7C280430210095003D302000F6
:1001680095000B11E7018B16C03024008D0021008B
:1001780095138B17463020006102031CC528E10146
:10018800DC2866080319DC2884312A248031200001
:10019800AF002F08E4006408AF006108A03E8600A5
:1001A80087012F0881000130AF002F08E107E60121
:1001B8006408473A031DE328E201E20AFA286208C4
:1001C8000319FA286208013A031DEF286408653A02
:1001D8000319FA28F9286208023A031DFA2874302C
:1001E800AF002F08E400E101FA28E2016108403A73
:1001F800031D052964080A3A031D1329E001E00AD2
:1002080013296008013A031D132964080B3A031DDA
:1002180012290230AF002F08E0001329E00160081E
:10022800023A031DBE28E001E501E50A1130650226
:1002380003185729E3010230630203184F296508A0
:10024800AF000130AF35FF3E031D26292F35630768
:10025800FC3EB0003008DF005F08A03E8600870142
:100268000108AF006508B0000130B035890B3929A5
:100278003E303007B10063083107B200320886000B
:1002880087012F0881000130AF002F08E3070230F3
:100298006302031C23290130AF002F08E507113042
:1002A8006502031C1E29E501E50A113065020318E1
:1002B800BE2865353E3E860087010108FE39AF003D
:1002C8006508B000B1013008A0003108A100053070
:1002D800A2000030A3008331BC2380319630200077
:1002E800B2002330B30020083207B4002108333DA0
:1002F800B50034088600350887002F0881000314EC
:10030800650D3E3E8600870101080F39AF0065087C
:10031800B000B1013008A0003108A1000530A200EA
:100328000030A3008331BC23803120002008023E26
:10033800B2000030213DB3009630B4002330B50040
:1003480032083407B6003308353DB7003608860052
:10035800370887002F0881000314650D3E3E86008C
:1003680087010108AF000630AF36890BB829023083
:100378002F05B00065353E3E86008701010801392A
:100388003004B1006508B200B3013208A000330898
:10039800A1000530A2000030A3008331BC238031C6
:1003A80020002008033EB4000030213DB5009630FF
:1003B800B6002330B70034083607B8003508373D93
:1003C800B9003808860039088700310881006508B7
:1003D800103A031D112A6508AF00B0012F08A000CC
:1003E8003008A1000530A2000030A3008331BC23EF
:1003F800803120002008033EB1000030213DB200CA
:100408009630B3002330B400310833078600320831
:10041800343D87000108B038342A65185A2A65081F
:10042800AF00B0012F08A0003008A1000530A200DD
:100438000030A3008331BC23803120002008033E14
:10044800B1000030213DB2009630B3002330B40033
:100458003108330786003208343D87000108903898
:10046800B5006508B600B7013608A0003708A10036
:100478000530A2000030A3008331BC238031200066
:100488002008033EB8000030213DB9009630BA007C
:100498002330BB0038083A07BC0039083B3DBD0093
:1004A8003C0886003D088700350881000314650D67
:1004B8003E3E860087010108AF000430AF36890B45
:1004C800622A2F080739B0006508B100B201310867
:1004D800A0003208A1000530A2000030A30083313B
:1004E800BC23803120002008043EB3000030213DA9
:1004F800B4009630B5002330B60033083507B7008E
:100508003408363DB80037088600380887003008B8
:1005180081000130AF002F08E50759290130F600A6
:100528007608FD077D08F600F7017608F0007708E1
:10053800F1000530F2000030F3008331DA23823114
:100548009630F8002330F9007008780786007108A3
:10055800793D8700010820008C007D08F600F7012E
:100568007608F0007708F1000530F2000030F3005B
:100578008331DA2382317008013EF8000030713D82
:10058800F9009630FA002330FB0078087A078600D5
:1005980079087B3D8700010820008D007D08F60062
:1005A800F7017608F0007708F1000530F200003016
:1005B800F3008331DA2382317008023EF8000030FC
:1005C800713DF9009630FA002330FB0078087A076D
:1005D800860079087B3D8700010820008E007D0891
:1005E800F600F7017608F0007708F1000530F20010
:1005F8000030F3008331DA2382317008033EF800BB
:100608000030713DF9009630FA002330FB0078087D
:100618007A07860079087B3D8700010820008F0053
:100628007D08F600F7017608F0007708F10005303C
:10063800F2000030F3008331DA2382317008043E7F
:10064800F8000030713DF9009630FA002330FB00C5
:1006580078087A07860079087B3D87000108200022
:1006680090007D08103A031D0800FD0108002000D5
:10067800A601A11F462BA009A109A00A0319A10AD6
:10068800A601A60AA31F512BA209A309A20A0319AE
:10069800A30A0130A4002408A606A701A80121087E
:1006A80020040319802BA501A50AA11B652B013085
:1006B800A035A10D890B5C2B0130A4002408A507E7
:1006C800592B0130A735A80D890B662B2108230269
:1006D800031D702B20082202031C772B2008A2027E
:1006E8002108A33B27140130A136A00C890B782BD5
:1006F8000130A502031D652B26080319882BA709BD
:10070800A809A70A0319A80A2808A101A107270808
:10071800A001A00708002000AE00AD012E1C962BFA
:10072800AD01AD0A0230A0000030A1002E08A900DA
:10073800AA012908A2002A08A30083313B23833198
:1007480020002008FF3A013E073EAB002B08AE0010
:10075800AC012E082C020318BA2B2D35A900290844
:10076800AD000130A9002908AC07AD2B2D08080001
:100778002000A401A501201CC52B2208A4072308DA
:10078800A53D0130A235A30D890BC62B0130A1363A
:10079800A00C890BCB2B21082004031DBF2B250897
:1007A800A101A1072408A001A0070800F401F50190
:1007B800701CE22B7208F4077308F53D0130F2351E
:1007C800F30D890BE32B0130F136F00C890BE82B84
:1007D80071087004031DDC2B7508F101F10774081A
:1007E800F001F007080070302100990023008C0107
:1007F8008D018F01900121008C018D01B0308E0098
:100808000C308F00900120008C018D0180308E000B
:100818008F01900108002000A2002208A000A10179
:1008280020082300910020002108230092001514BD
:10083800130808006400800101310130FE02003015
:10084800FF3B7F087E04031900341F2C2000911EF3
:0A0858002A2C911223001908080051
:020000040001F9
:04000E0084FFFFFF6D
:00000001FF
