:0400000080311F2804
:100008007E14803120007F08FC000B1D1A283D302B
:1000180095008231792280312000911E1628210016
:10002800E801E80A41308331B8230B117C0820002D
:10003800FF007E100900803121289B308400233086
:1000480085005530FE000030FF0083319B2380314E
:10005800FD0120308400003085003030FE00003083
:10006800FF0083319B2380312100E801E901203022
:100078008400013085003030FE000030FF008331FD
:100088009B238031A0308400013085004630FE007B
:100098000030FF0083319B237E10200080315428DC
:1000A800FF302000D6005608E100A030860001305D
:1000B8008700A0308400003085004630D600160046
:1000C8001A00D60B6328E3012100E6012000E401B1
:1000D800E20183316223803121008E170E13333001
:1000E80023009B0090309D0024309E009F0100302B
:1000F80083318C2380312000D6005608E10021008E
:10010800E701103067020318BF2867088331792395
:1001180080312000D600210067082000D700D801D0
:100128005708D0005808D1000530D2000030D3005D
:1001380083312723803120005008013ED900003048
:10014800513DDA009B30DB002330DC0059085B07A7
:10015800DD005A085C3DDE005D0886005E08870009
:10016800560881000130D60056082100E7071030F4
:100178006702031C8928063095003D302000950051
:100188000B112100E9018B16C03024008D002100DD
:1001980095138B138331B123803120006106031D31
:1001A800E828200061088331A7238031053020002A
:1001B800D8000F30D700F430D600D60BE128D70B83
:1001C800E128D80BE128CE28463020006302031C22
:1001D800EF28E3010A292100680803190A29833155
:1001E800B12380312000D60056082100E6006608B9
:1001F8002000D6006308A03E8600870156088100CB
:100208000130D6005608E3072100E80121006608FE
:10021800473A031D13292000E401E40A312920008C
:100228006408031931296408013A031D24292100AF
:100238006608653A031D222920003129200030294B
:100248006408023A031D31297430D600560821008B
:10025800E6002000E3013129E40120006308413A67
:10026800031D3F29210066080A3A031D5029200072
:10027800E201E20A50296208013A031D50292100CF
:1002880066080B3A031D4E2902302000D600560896
:10029800E20050292000E20120006208023A031D12
:1002A800E8282100E7011030670203189A29200086
:1002B800E501023065020318912921006708200032
:1002C800D6000130D635FF3E031D66295635650731
:1002D800D7005708E0006008A03E860087010108A3
:1002E800D600210067082000D7000130D735890BD8
:1002F8007A2950305707D80065085807D900590897
:10030800860001308700560881000130D600560863
:10031800E50702306502031C61290130D600560842
:100328002100E70710306702031C5B29E701103042
:1003380067020318E8286735503E860001308700B9
:100348000108FE392000D600210067082000D700E8
:10035800D8015708D0005808D1000530D200003025
:10036800D3008331272380319B302000D9002330EC
:10037800DA0050085907DB0051085A3DDC005B08D9
:1003880086005C0887005608810003142100670D69
:10039800503E86000130870001080F392000D60042
:1003A800210067082000D700D8015708D000580856
:1003B800D1000530D2000030D300833127238031AB
:1003C80020005008023ED9000030513DDA009B3031
:1003D800DB002330DC0059085B07DD005A085C3D70
:1003E800DE005D0886005E08870056088100031459
:1003F8002100670D503E860001308700010820006B
:10040800D6000430D636890B062A56080739D70095
:10041800210067082000D800D9015808D0005908E1
:10042800D1000530D2000030D3008331272380313A
:1004380020005008033EDA000030513DDB009B30BD
:10044800DC002330DD005A085C07DE005B085D3DF8
:10045800DF005E0886005F088700570881000314E4
:100468002100670D503E86000130870001082000FA
:10047800D6000630D636890B3E2A21006735503E15
:100488008600013087000108013920005604D70092
:10049800210067082000D800D9015808D000590861
:1004A800D1000530D2000030D300833127238031BA
:1004B80020005008043EDA000030513DDB009B303C
:1004C800DC002330DD005A085C07DE005B085D3D78
:1004D800DF005E0886005F0887005708810001304A
:1004E800D60056082100E7079B2920000F128F121B
:1004F8000130F6007608FD077D08F600F70176085A
:10050800F0007708F1000530F2000030F300833185
:10051800452382319B30F8002330F90070087807B2
:1005280086007108793D8700010820008C007D084D
:10053800F600F7017608F0007708F1000530F200C0
:100548000030F3008331452382317008013EF80002
:100558000030713DF9009B30FA002330FB00780829
:100568007A07860079087B3D8700010820008D0006
:100578007D08F600F7017608F0007708F1000530ED
:10058800F2000030F3008331452382317008023EC7
:10059800F8000030713DF9009B30FA002330FB0071
:1005A80078087A07860079087B3D870001082000D3
:1005B8008E007D08F600F7017608F0007708F10054
:1005C8000530F2000030F300833145238231700892
:1005D800033EF8000030713DF9009B30FA002330EB
:1005E800FB0078087A07860079087B3D87000108B8
:1005F80020008F007D08F600F7017608F0007708E4
:10060800F1000530F2000030F300833145238231D8
:100618007008043EF8000030713DF9009B30FA0084
:100628002330FB0078087A07860079087B3D87002D
:100638000108200090007D08103A031D0800FD0104
:100648008F160F1608002000D401D501501C302B3E
:100658005208D4075308D53D0130D235D30D890B44
:10066800312B0130D136D00C890B362B5108500470
:10067800031D2A2B5508D101D1075408D001D007F2
:100688000800F401F501701C4D2B7208F40773087B
:10069800F53D0130F235F30D890B4E2B0130F13663
:1006A800F00C890B532B71087004031D472B750838
:1006B800F101F1077408F001F0070800703021001B
:1006C800990023008C018D018F01900121008C017C
:1006D8008D01B0308E000E308F00900120008C010B
:1006E8008D0180308E008F0108002000D300D201D8
:1006F800531C802BD201D20AD1015308510203188E
:100708008A2B0130D0005008D107812B52080800ED
:100718002000D2005208D000D101500823009100D7
:1007280020005108230092001514130808006400E3
:10073800800101310130FE020030FF3B7F087E045A
:10074800031900349C2B2000D00023009E1CA92BE9
:100758002000500823009A0008002000911EB12BA9
:100768009112230019080800F00023009E1CB92BE1
:0607780070089A00080061
:020000040001F9
:04000E0084FFFFFF6D
:00000001FF
