:0400000080311A2809
:100008007E14803120007F08FC000B1D16283D302F
:1000180095008331782380312000911E1528E60150
:10002800E60A0B117C08FF007E10090080311C28AD
:1000380096308400233085005A30FE000030FF00DF
:1000480085311A258031FD01E601E7012030840061
:10005800013085003030FE000030FF0085311A2560
:100068008031A0308400013085003030FE0000303F
:10007800FF0085311A258031203084000230850048
:100088004630FE000030FF0085311A257E10200022
:1000980080314E28FF302000AF002F08E1002030CB
:1000A800860002308700A03084000030850046308A
:1000B800AF0016001A00AF0B5D28DE01DF01E0017A
:1000C800E3018431AE24803121008E170E133330C2
:1000D80023009B0090309D0024309E009F0100303B
:1000E80085310B2580312000AF002F08E100E501A4
:1000F800103065020318B3286508843181248031E3
:100108002000AF006508B000B1013008A000310838
:10011800A1000530A2000030A3008431D024803132
:1001280020002008013EB2000030213DB300963087
:10013800B4002330B50032083407B6003308353D23
:10014800B70036088600370887002F08810001307D
:10015800AF002F08E50710306502031C8028043023
:10016800210095003D30200095000B11E7018B160A
:10017800C03024008D00210095138B13023020001D
:10018800AF002F08E300E501403065020318DC28C2
:10019800FF30AF006508A03E860087012F08810068
:1001A8000130AF002F08E50740306502031CCC285A
:1001B8006308023A031D762BE501E50A1130650252
:1001C80003181F29E401023064020318172965087F
:1001D800AF000130AF35FF3E031DEE282F35640711
:1001E800FC3EB0003008E2006208A03E86008701AD
:1001F8000108AF006508B0000130B035890B01294E
:100208003E303007B10064083107B200320886007A
:1002180087012F0881000130AF002F08E407023062
:100228006402031CEB280130AF002F08E5071130EA
:100238006502031CE628E501E50A1130650203188A
:100248005D2A65353E3E860087010108FE39AF000C
:100258006508B000B1013008A0003108A1000530E0
:10026800A2000030A3008431D024803196302000D1
:10027800B2002330B30020083207B4002108333D10
:10028800B50034088600350887002F08810003145C
:10029800650D3E3E8600870101080F39AF006508ED
:1002A800B000B1013008A0003108A1000530A2005B
:1002B8000030A3008431D024803120002008023E81
:1002C800B2000030213DB3009630B4002330B500B1
:1002D80032083407B6003308353DB70036088600C3
:1002E800370887002F0881000314650D3E3E8600FD
:1002F80087010108AF000630AF36890B802902302C
:100308002F05B00065353E3E86008701010801399A
:100318003004B1006508B200B3013208A000330808
:10032800A1000530A2000030A3008431D024803120
:1003380020002008033EB4000030213DB50096306F
:10034800B6002330B70034083607B8003508373D03
:10035800B900380886003908870031088100650827
:10036800103A031DD9296508AF00B0012F08A00075
:100378003008A1000530A2000030A3008431D02449
:10038800803120002008033EB1000030213DB2003A
:100398009630B3002330B4003108330786003208A2
:1003A800343D87000108B038FC296518222A650801
:1003B800AF00B0012F08A0003008A1000530A2004E
:1003C8000030A3008431D024803120002008033E6F
:1003D800B1000030213DB2009630B3002330B400A4
:1003E8003108330786003208343D87000108903809
:1003F800B5006508B600B7013608A0003708A100A7
:100408000530A2000030A3008431D02480312000C0
:100418002008033EB8000030213DB9009630BA00EC
:100428002330BB0038083A07BC0039083B3DBD0003
:100438003C0886003D088700350881000314650DD7
:100448003E3E860087010108AF000430AF36890BB5
:100458002A2A2F080739B0006508B100B20131080F
:10046800A0003208A1000530A2000030A3008431AA
:10047800D024803120002008043EB3000030213D04
:10048800B4009630B5002330B60033083507B700FE
:100498003408363DB8003708860038088700300829
:1004A80081000130AF002F08E50711306502031CF9
:1004B8002529E501E50A113065020318762B650840
:1004C800AF00B0012F08A0003008A1000530A2003D
:1004D8000030A3008431D024803196302000B10050
:1004E8002330B20020083107B3002108323DB400A0
:1004F8003308860034088700FE3081006508AF00A5
:10050800B0012F08A0003008A1000530A20000307B
:10051800A3008431D024803120002008023EB1009D
:100528000030213DB2009630B3002330B4003108CA
:100538003307B5003208343DB60035088600360862
:1005480087000F3081006508AF00B0012F08A000B8
:100558003008A1000530A2000030A3008431D02467
:10056800803120002008033EB1000030213DB20058
:100578009630B3002330B40031083307B500320891
:10058800343DB60035088600360887000330810000
:100598006508103A031DF22A6508AF00B0012F085C
:1005A800A0003008A1000530A2000030A30084316B
:1005B800D024803120002008033EB1000030213DC6
:1005C800B2009630B3002330B400310833078600F8
:1005D8003208343D87000108B038152B65183B2BCD
:1005E8006508AF00B0012F08A0003008A100053051
:1005F800A2000030A3008431D024803120002008DC
:10060800033EB1000030213DB2009630B3002330E4
:10061800B4003108330786003208343D87000108EA
:100628009038B5006508B600B7013608A00037084D
:10063800A1000530A2000030A3008431D02480310D
:1006480020002008033EB8000030213DB900963054
:10065800BA002330BB0038083A07BC0039083B3DD4
:10066800BD003C0886003D0887003508810003145A
:10067800650D3E3E860087010108AF000430AF36A5
:10068800890B432B2F080739B0006508B100B20168
:100698003108A0003208A1000530A2000030A300F4
:1006A8008431D024803120002008043EB30000307B
:1006B800213DB4009630B5002330B6003308350725
:1006C800B7003408363DB800370886003808870078
:1006D800300881000130AF002F08E50711306502AE
:1006E800031C632A8B17772B0130F6007608FD0769
:1006F8007D08F600F7017608F0007708F10005306C
:10070800F2000030F3008431EE2483319630F80093
:100718002330F9007008780786007108793D870052
:10072800010820008C007D08F600F7017608F0002B
:100738007708F1000530F2000030F3008431EE2430
:1007480083317008013EF8000030713DF9009630A1
:10075800FA002330FB0078087A07860079087B3D89
:100768008700010820008D007D08F600F701760853
:10077800F0007708F1000530F2000030F300843112
:10078800EE2483317008023EF8000030713DF90014
:100798009630FA002330FB0078087A07860079083B
:1007A8007B3D8700010820008E007D08F600F701D8
:1007B8007608F0007708F1000530F2000030F30009
:1007C8008431EE2483317008033EF8000030713D17
:1007D800F9009630FA002330FB0078087A07860083
:1007E80079087B3D8700010820008F007D08F6000E
:1007F800F7017608F0007708F1000530F2000030C4
:10080800F3008431EE2483317008043EF800003090
:10081800713DF9009630FA002330FB0078087A071A
:10082800860079087B3D87000108200090007D083C
:10083800103A0319FD011530F8004B30F700D1309C
:10084800F600F60B252CF70B252CF80B252C0000B1
:1008580008002000A601A11F382CA009A109A00AA0
:100868000319A10AA601A60AA31F432CA209A309DA
:10087800A20A0319A30A0130A4002408A606A701A6
:10088800A801210820040319722CA501A50AA11B9F
:10089800572C0130A035A10D890B4E2C0130A40036
:1008A8002408A5074B2C0130A735A80D890B582C17
:1008B80021082302031D622C20082202031C692C34
:1008C8002008A2022108A33B27140130A136A00C5E
:1008D800890B6A2C0130A502031D572C2608031921
:1008E8007A2CA709A809A70A0319A80A2808A101A8
:1008F800A1072708A001A00708002000AE00AD014D
:100908002E1C882CAD01AD0A0230A0000030A100D9
:100918002E08A900AA012908A2002A08A3008431E8
:100928002D24843120002008FF3A013E073EAB0009
:100938002B08AE00AC012E082C020318AC2C2D3568
:10094800A9002908AD000130A9002908AC079F2C8F
:100958002D08080070302100990023008C018D01BA
:100968008F01900121008C018D01B0308E000C3078
:100978008F00900120008C018D0180308E008F0146
:1009880025009A01930120009E019F0122008F01FA
:100998002F0091019A0108002000A401A501201C44
:1009A800D92C2208A4072308A53D0130A235A30DA0
:1009B800890BDA2C0130A136A00C890BDF2C210819
:1009C8002004031DD32C2508A101A1072408A00198
:1009D800A0070800F401F501701CF62C7208F40752
:1009E8007308F53D0130F235F30D890BF72C013012
:1009F800F136F00C890BFC2C71087004031DF02CE7
:100A08007508F101F1077408F001F00708002000EB
:100A1800A2002208A000A1012008230091002000C4
:100A280021082300920015141308080064008001AF
:100A380001310130FE020030FF3B7F087E040319BC
:040A480000341B2D2E
:020000040001F9
:04000E0084FFFFFF6D
:00000001FF
