:0400000080311A2809
:100008007E14803120007F08FC000B1D16283D302F
:10001800950082315F2280312000911E1528E6016B
:10002800E60A0B117C08FF007E10090080311C28AD
:1000380096308400233085005A30FE000030FF00DF
:100048008331F5238031FD01E601E701203084008A
:10005800013085003030FE000030FF008331F52389
:100068008031A0308400013085003030FE0000303F
:10007800FF008331F5238031203084000230850071
:100088004630FE000030FF008331F5237E1020004B
:1000980080314E28FF302000AF002F08E1002030CB
:1000A800860002308700A03084000030850046308A
:1000B800AF0016001A00AF0B5D28DE01DF01E0017A
:1000C800E30183318923803121008E170E133330E9
:1000D80023009B0090309D0024309E009F0100303B
:1000E8008331E62380312000AF002F08E100E501CD
:1000F800103065020318B328650883315C2380310A
:100108002000AF006508B000B1013008A000310838
:10011800A1000530A2000030A3008331AB23803159
:1001280020002008013EB2000030213DB300963087
:10013800B4002330B50032083407B6003308353D23
:10014800B70036088600370887002F08810001307D
:10015800AF002F08E50710306502031C8028043023
:10016800210095003D30200095000B11E7018B160A
:10017800C03024008D00210095138B13023020001D
:10018800AF002F08E300E501403065020318DC28C2
:10019800FF30AF006508A03E860087012F08810068
:1001A8000130AF002F08E50740306502031CCC285A
:1001B8006308023A031D5D2AE501E50A113065026C
:1001C80003181F29E401023064020318172965087F
:1001D800AF000130AF35FF3E031DEE282F35640711
:1001E800FC3EB0003008E2006208A03E86008701AD
:1001F8000108AF006508B0000130B035890B01294E
:100208003E303007B10064083107B200320886007A
:1002180087012F0881000130AF002F08E407023062
:100228006402031CEB280130AF002F08E5071130EA
:100238006502031CE628E501E50A1130650203188A
:100248005D2A65353E3E860087010108FE39AF000C
:100258006508B000B1013008A0003108A1000530E0
:10026800A2000030A3008331AB23803196302000F8
:10027800B2002330B30020083207B4002108333D10
:10028800B50034088600350887002F08810003145C
:10029800650D3E3E8600870101080F39AF006508ED
:1002A800B000B1013008A0003108A1000530A2005B
:1002B8000030A3008331AB23803120002008023EA8
:1002C800B2000030213DB3009630B4002330B500B1
:1002D80032083407B6003308353DB70036088600C3
:1002E800370887002F0881000314650D3E3E8600FD
:1002F80087010108AF000630AF36890B802902302C
:100308002F05B00065353E3E86008701010801399A
:100318003004B1006508B200B3013208A000330808
:10032800A1000530A2000030A3008331AB23803147
:1003380020002008033EB4000030213DB50096306F
:10034800B6002330B70034083607B8003508373D03
:10035800B900380886003908870031088100650827
:10036800103A031DD9296508AF00B0012F08A00075
:100378003008A1000530A2000030A3008331AB2370
:10038800803120002008033EB1000030213DB2003A
:100398009630B3002330B4003108330786003208A2
:1003A800343D87000108B038FC296518222A650801
:1003B800AF00B0012F08A0003008A1000530A2004E
:1003C8000030A3008331AB23803120002008033E96
:1003D800B1000030213DB2009630B3002330B400A4
:1003E8003108330786003208343D87000108903809
:1003F800B5006508B600B7013608A0003708A100A7
:100408000530A2000030A3008331AB2380312000E7
:100418002008033EB8000030213DB9009630BA00EC
:100428002330BB0038083A07BC0039083B3DBD0003
:100438003C0886003D088700350881000314650DD7
:100448003E3E860087010108AF000430AF36890BB5
:100458002A2A2F080739B0006508B100B20131080F
:10046800A0003208A1000530A2000030A3008331AB
:10047800AB23803120002008043EB3000030213D2A
:10048800B4009630B5002330B60033083507B700FE
:100498003408363DB8003708860038088700300829
:1004A80081000130AF002F08E50711306502031CF9
:1004B80025298B175E2A0130F6007608FD077D088E
:1004C800F600F7017608F0007708F1000530F20031
:1004D8000030F3008331C92382319630F80023308D
:1004E800F9007008780786007108793D87000108CF
:1004F80020008C007D08F600F7017608F0007708E8
:10050800F1000530F2000030F3008331C923823155
:100518007008013EF8000030713DF9009630FA008D
:100528002330FB0078087A07860079087B3D87002E
:10053800010820008D007D08F600F7017608F0001C
:100548007708F1000530F2000030F3008331C92349
:1005580082317008023EF8000030713DF900963093
:10056800FA002330FB0078087A07860079087B3D7B
:100578008700010820008E007D08F600F701760844
:10058800F0007708F1000530F2000030F300833105
:10059800C92382317008033EF8000030713DF9002C
:1005A8009630FA002330FB0078087A07860079082D
:1005B8007B3D8700010820008F007D08F600F701C9
:1005C8007608F0007708F1000530F2000030F300FB
:1005D8008331C92382317008043EF8000030713D30
:1005E800F9009630FA002330FB0078087A07860075
:1005F80079087B3D87000108200090007D08103AAB
:10060800031D0800FD0108002000A601A11F132BEF
:10061800A009A109A00A0319A10AA601A60AA31FF5
:100628001E2BA209A309A20A0319A30A0130A400D8
:100638002408A606A701A8012108200403194D2BA8
:10064800A501A50AA11B322B0130A035A10D890BEC
:10065800292B0130A4002408A507262B0130A73533
:10066800A80D890B332B21082302031D3D2B2008DD
:100678002202031C442B2008A2022108A33B2714B2
:100688000130A136A00C890B452B0130A502031DB2
:10069800322B26080319552BA709A809A70A0319FD
:1006A800A80A2808A101A1072708A001A007080097
:1006B8002000AE00AD012E1C632BAD01AD0A023047
:1006C800A0000030A1002E08A900AA012908A20054
:1006D8002A08A30083310823833120002008FF3A29
:1006E800013E073EAB002B08AE00AC012E082C02E1
:1006F8000318872B2D35A9002908AD000130A90062
:100708002908AC077A2B2D080800703021009900C1
:1007180023008C018D018F01900121008C018D0136
:10072800B0308E000C308F00900120008C018D01BC
:1007380080308E008F0125009A01930120009E01D0
:100748009F0122008F012F0091019A0108002000CB
:10075800A401A501201CB42B2208A4072308A53D49
:100768000130A235A30D890BB52B0130A136A00CA1
:10077800890BBA2B21082004031DAE2B2508A101E3
:10078800A1072408A001A0070800F401F501701CC6
:10079800D12B7208F4077308F53D0130F235F30DDB
:1007A800890BD22B0130F136F00C890BD72B71084D
:1007B8007004031DCB2B7508F101F1077408F001D3
:1007C800F00708002000A2002208A000A1012008CC
:1007D800230091002000210823009200151413081B
:1007E80008006400800101310130FE020030FF3B47
:0A07F8007F087E0403190034F62B7D
:020000040001F9
:04000E0084FFFFFF6D
:00000001FF
